:100000000C9434000C943E000C943E000C943E0082
:100010000C943E000C943E000C943E000C943E0068
:100020000C943E000C943E000C943E000C943E0058
:100030000C943E000C943E000C943E000C943E0048
:100040000C943E000C943E000C943E000C943E0038
:100050000C943E000C943E000C943E000C943E0028
:100060000C943E000C943E0011241FBECFEFD8E04C
:10007000DEBFCDBF0E9440000C946D000C940000C8
:10008000219A229A239A249A8AB11AB820E030E061
:1000900042E050E168E074E0C9018370992700975D
:1000A00009F445B98130910511F475B908C0823061
:1000B000910511F465B903C0039709F455B98FEFA1
:1000C00094E3ECE081509040E040E1F700C0000094
:0E00D0004F9BE2CF2F5F3F4FDFCFF894FFCF63
:00000001FF
